:060000000C9447000C9473
:1000060000000C9400000C9400000C9400000C946A
:1000160000000C9400000C9400000C9400000C945A
:1000260000000C9400000C9400000C9400000C944A
:1000360000000C9400000C9400000C9400000C943A
:1000460000000C9400000C9400000C9400000C942A
:1000560000000C9400000C9400000C9400000C941A
:1000660000000C9400000C9400000C9400000C940A
:1000760000000C9400000C9400000C9400000C94FA
:1000860000000C9400000000F894EE27ECBBF1E0B1
:10009600F5BFE5BFE0936C00F8E1F1BDE1BD8DE091
:1000A600A2E0BB27ED938A95E9F780E090E1A0E016
:1000B600B1E0ED930197E9F78BBFECE8F0E08591AD
:1000C6009591009761F0A591B59105901590BF01A6
:1000D600F00105900D920197E1F7FB01F0CFEFEFEC
:1000E600EDBFE0E1EEBFC0E0D5E00C949800E881FA
:1000F600F9813197E883F983D1F7229608950E9412
:10010600A3000EEF10E020E01830E0E02E074CF4DC
:1001160012D008BBE02FEE0FE1600E2F1F5F2F4FAE
:10012600F3CF0E94A70023960895EFEFE7BBE7DF22
:1001360002D0FDCFFFCFEFEFFFEFFA93EA93D7CFD1
:100146002A931A930A9308952A811981088108959A
:00000001FF
